S0220000646F75626C655F64696769745F646973706C61795F626F6172642E737265635B
S11300000FC033C05FC131C030C02FC02EC02DC05F
S11300102CC02BC02AC029C028C027C026C08701F5
S113002011241FBECFE5D2E0DEBFCDBF10E0A0E6B5
S1130030B0E0EEE3F3E002C005900D92AA36B107FA
S1130040D9F720E0AAE6B0E001C01D92A537B207B7
S1130050E1F710E0C0E2D0E003C02297FE0169D1CD
S1130060CE31D107D1F708D168C1CACF8FEF87BB92
S113007088BB85B78F7B85BF089527B381E090E067
S1130080062E02C0880F991F0A94E2F7282330E055
S1130090062E02C0359527950A94E2F721110DC06A
S11300A098B38095892350E09A0102C0220F331F30
S11300B06A95E2F7B901682B68BB089558B321E04B
S11300C030E0C901062E02C0880F991F0A94E2F796
S11300D08095852350E09A0102C0220F331F6A9550
S11300E0E2F7B901682B68BB0895BF92CF92DF9203
S11300F0EF92FF920F931F93CF93DF937C01C62E51
S1130100B42E122F40E0602FD9DFC0E0D0E0D12C14
S1130110C6010C2E02C0959587950A94E2F7482FE4
S113012041706B2DC701CADF82E08A95F1F700C0E8
S113013041E0612FC701C2DF22E02A95F1F700C038
S113014040E0612FC701BADF82E08A95F1F700C071
S11301502196C830D105E1F641E0602FC701AEDF3A
S113016022E02A95F1F700C040E0602FC701A6DF26
S1130170DF91CF911F910F91FF90EF90DF90CF907F
S1130180BF9008950F931F93CF93DF93CDB7DEB73E
S11301902A970FB6F894DEBF0FBECDBF082F192FD4
S11301A065DF202F312F83E6D9018D939D018AE0ED
S11301B0E0E6F0E0DE01119601900D928A95E1F7F8
S11301C0FE013196CE010B964191D9014D939D01CB
S11301D0E817F907C9F72A960FB6F894DEBF0FBEE1
S11301E0CDBFDF91CF911F910F9108950F931F936E
S11301F0CF93DF93EC0188816AE08DD0182FFE0144
S1130200E90FF11D01E022E040E06181CE016DDFE4
S1130210FE01E10FF11D22E040E06181CE0165DFC6
S1130220DF91CF911F910F9108958BB780628BBF9F
S1130230AB9A789408951F93CF93DF93EC0186B320
S1130240B39B16C013E688818F5F843610F48883CD
S113025001C01883CE01CADF2FEF84E39CE0215054
S113026080409040E1F700C0000086B3B399EBCF23
S1130270DF91CF911F910895B89ABA9AB99ABB9811
S113028040E063E08AE690E0F8DEBC9A8AE690E01B
S1130290CCDFC4E68AE690E0A9DF2FEF84E39CE09C
S11302A0215080409040E1F700C0000080916A0036
S11302B0811102C0C0936A00EAE6F0E080818150B7
S11302C08083E8CF1F920F920FB60F9211242F93C1
S11302D03F934F935F936F937F938F939F93AF93CA
S11302E0BF93EF93FF938AE690E0A5DFFF91EF9130
S11302F0BF91AF919F918F917F916F915F914F913A
S11303003F912F910F900FBE0F901F9018958AE682
S113031090E038DF0895991B79E004C0991F96177F
S113032008F0961B881F7A95C9F780950895EE0FFB
S1110330FF1F0590F491E02D0994F894FFCF7F
S10D033EDE06EC6E367AFA0EFE3E7F
S9030000FC
