S0220000646F75626C655F64696769745F646973706C61795F626F6172642E737265635B
S11300000FC033C032C031C030C02FC02EC02DC08D
S11300102CC02BC02AC029C028C027C026C0ED0090
S113002011241FBECFE5D2E0DEBFCDBF10E0A0E6B5
S1130030B0E0E0E4F2E002C005900D92AA36B10708
S1130040D9F720E0AAE6B0E001C01D92AB36B207B2
S1130050E1F710E0C0E2D0E003C02297FE01EAD04D
S1130060CE31D107D1F766D0E9C0CACF8FEF87BBB5
S113007088BB85B78F7B85BF089558B321E030E0F6
S1130080C901062E02C0880F991F0A94E2F78095D1
S1130090852350E09A0102C0220F331F6A95E2F7CC
S11300A0B901682B68BB08950F931F93CF93DF9317
S11300B0082F40E061E08AE690E0DFDFC0E0D0E0B6
S11300C010E0A8010C2E02C0559547950A94E2F75A
S11300D0417060E08AE690E0D0DF8AE18A95F1F72A
S11300E000C041E062E08AE690E0C7DF8AE18A95D9
S11300F0F1F700C040E062E08AE690E0BEDF8AE10A
S11301008A95F1F700C02196C830D105D1F641E0B7
S113011061E08AE690E0B1DF8AE18A95F1F700C0F8
S113012040E061E08AE690E0A8DFDF91CF911F9183
S11301300F910895CF93DF93CDB7DEB72A970FB60B
S1130140F894DEBF0FBECDBF8AE0E0E6F0E0DE014A
S1130150119601900D928A95E1F7B89ABA9AB99AD4
S1130160BC9A8981A1DF89819FDF2FEF82E597E027
S1130170215080409040E1F700C0000001E010E011
S11301800F2EFAE0CF2ED12CF02DA12CB12C02C0D1
S11301900A2D1B2DC801B60124D07B01E1E0F0E05B
S11301A0EC0FFD1FE80FF91F80817EDFE1E0F0E036
S11301B0EC0FFD1FEE0DFF1D808176DF2FEF82E532
S11301C097E0215080409040E1F700C000000F5FAD
S11301D01F4F04361105E4F6DDCF8AE690E046DFD2
S11301E0089597FB072E16F4009406D077FD08D0E7
S11301F00BD007FC05D03EF4909581959F4F089550
S1130200709561957F4F0895AA1BBB1B51E107C0F0
S1130210AA1FBB1FA617B70710F0A61BB70B881F92
S1130220991F5A95A9F780959095BC01CD01089521
S1130230EE0FFF1F0590F491E02D0994F894FFCF81
S10D0240DE06EC6E367AFA0EFE3E7E
S9030000FC
