S0220000646F75626C655F64696769745F646973706C61795F626F6172642E737265635B
S11300000FC033C0B7C131C030C02FC02EC02DC007
S11300102CC02BC02AC029C028C027C026C0DF019D
S113002011241FBECFE5D2E0DEBFCDBF10E0A0E6B5
S1130030B0E0EEEEF3E002C005900D92AA36B107EF
S1130040D9F720E0AAE6B0E001C01D92A637B207B6
S1130050E1F710E0C0E2D0E003C02297FE01C1D175
S1130060CE31D107D1F76CD1C0C1CACF8FEF87BBD6
S113007088BB85B78F7B85BF089527B381E090E067
S1130080062E02C0880F991F0A94E2F7282330E055
S1130090062E02C0359527950A94E2F721110DC06A
S11300A098B38095892350E09A0102C0220F331F30
S11300B06A95E2F7B901682B68BB089558B321E04B
S11300C030E0C901062E02C0880F991F0A94E2F796
S11300D08095852350E09A0102C0220F331F6A9550
S11300E0E2F7B901682B68BB0895BF92CF92DF9203
S11300F0EF92FF920F931F93CF93DF937C01C62E51
S1130100B42E122F40E0602FD9DFC0E0D0E0D12C14
S1130110C6010C2E02C0959587950A94E2F7482FE4
S113012041706B2DC701CADF82E08A95F1F700C0E8
S113013041E0612FC701C2DF22E02A95F1F700C038
S113014040E0612FC701BADF82E08A95F1F700C071
S11301502196C830D105E1F641E0602FC701AEDF3A
S113016022E02A95F1F700C040E0602FC701A6DF26
S1130170DF91CF911F910F91FF90EF90DF90CF907F
S1130180BF9008950F931F93CF93DF93CDB7DEB73E
S11301902A970FB6F894DEBF0FBECDBF8C0166DF81
S11301A08FE0F8018083138640E064E0C80186DFB5
S11301B08AE0E0E6F0E0DE01119601900D928A9566
S11301C0E1F7FE013196D8011196CE010B962191EB
S11301D02D93E817F907D9F72A960FB6F894DEBFDE
S11301E00FBECDBFDF91CF911F910F9108950F9353
S11301F01F93CF93DF93EC0188816AE0E4D0182F3A
S1130200FE01E90FF11D01E022E040E06181CE0131
S11302106CDFFE01E10FF11D22E040E06181CE01BF
S113022064DFDF91CF911F910F9108950F931F9376
S1130230CF93DF93EC018881882311F08150888368
S1130240CE01D5DF8881811126C08B85811123C021
S113025081E08B870BE010E041E064E0CE012EDF0B
S11302602FEF80E792E0215080409040E1F700C0FA
S1130270000040E064E0CE0121DF2FEF80E792E050
S1130280215080409040E1F700C000000150110966
S11302900115110509F7DF91CF911F910F91089571
S11302A08BB780628BBFAB9A78940895FF920F93BB
S11302B01F93CF93DF93EC018B85813009F41B8668
S11302C086B3B39B37C010E00F2EF3E6FF2EF02D5C
S11302D004E188818F5F1F5F843610F4888301C036
S11302E0F882CE0184DF143050F42FEF84E39CE0D5
S11302F0215080409040E1F700C0000015C01B3041
S113030050F42FEF81EE94E0215080409040E1F7CB
S113031000C0000009C02FEF80E792E02150804028
S11303209040E1F700C00000153108F0102F86B3AB
S1130330B399CFCFDF91CF911F910F91FF90089583
S1130340B89ABA9AB99ABB9840E063E08AE690E01A
S113035094DEBC9A8AE690E0A3DF8AE690E066DF4A
S11303602FEF84E39CE0215080409040E1F700C0EF
S11303700000F3CF1F920F920FB60F9211242F9308
S11303803F934F935F936F937F938F939F93AF9319
S1130390BF93EF93FF938AE690E088DFFF91EF919C
S11303A0BF91AF919F918F917F916F915F914F9189
S11303B03F912F910F900FBE0F901F9018958AE6D2
S11303C090E0E0DE0895991B79E004C0991F961728
S11303D008F0961B881F7A95C9F780950895EE0F4B
S11103E0FF1F0590F491E02D0994F894FFCFCF
S10D03EEDE06EC6E367AFA0EFE3ECF
S9030000FC
