:100000000FC033C032C031C030C02FC02EC02DC091
:100010002CC02BC02AC029C028C027C026C00D0173
:1000200011241FBECFE5D2E0DEBFCDBF10E0A0E6B9
:10003000B0E0E0E8F2E002C005900D92AA36B10708
:10004000D9F720E0AAE6B0E001C01D92AB36B207B6
:10005000E1F710E0C0E2D0E003C02297FE010AD130
:10006000CE31D107D1F76DD009C1CACF8FEF87BB91
:1000700088BB85B78F7B85BF089558B321E030E0FA
:10008000C901062E02C0880F991F0A94E2F78095D5
:10009000852350E09A0102C0220F331F6A95E2F7D0
:1000A000B901682B68BB0895BF92CF92DF92EF929F
:1000B000FF920F931F93CF93DF937C01C62EB42E34
:1000C000122F40E0602FD9DFC0E0D0E0D12CC60174
:1000D0000C2E02C0959587950A94E2F7482F41703F
:1000E0006B2DC701CADF8AE18A95F1F700C041E0B4
:1000F000612FC701C2DF2AE12A95F1F700C040E075
:10010000612FC701BADF8AE18A95F1F700C0219615
:10011000C830D105E1F641E0602FC701AEDF2AE12A
:100120002A95F1F700C040E0602FC701A6DFDF91FC
:10013000CF911F910F91FF90EF90DF90CF90BF90E4
:100140000895CF93DF93CDB7DEB72A970FB6F89413
:10015000DEBF0FBECDBF8AE0E0E6F0E0DE01119623
:1001600001900D928A95E1F7B89ABA9AB99ABC9A19
:1001700001E022E040E06A858AE690E095DF22E037
:1001800040E06A858AE690E08FDF2FEF82E597E016
:10019000215080409040E1F700C000000F2EF2E6B1
:1001A000EF2EF12CF02D0F2EFAE0AF2EB12CF02D0A
:1001B0000F2EF3E69F2EF02D10E002C0E92CF12E59
:1001C000C701B5012ED06B01E1E0F0E0EC0FFD1F9F
:1001D000E80FF91F01E022E040E060818AE690E04C
:1001E00063DFE1E0F0E0EC0FFD1FEC0DFD1D22E010
:1001F00040E060818AE690E057DF2FEF82E597E0EC
:10020000215080409040E1F700C0000021E0E21A58
:10021000F1081E141F04A4F2D1CF8AE690E026DF75
:10022000089597FB072E16F4009406D077FD08D0AA
:100230000BD007FC05D03EF4909581959F4F089513
:10024000709561957F4F0895AA1BBB1B51E107C0B4
:10025000AA1FBB1FA617B70710F0A61BB70B881F56
:10026000991F5A95A9F780959095BC01CD010895E5
:10027000EE0FFF1F0590F491E02D0994F894FFCF45
:0A028000DE06EC6E367AFA0EFE3E42
:00000001FF
