:100000000FC033C0E0C031C030C02FC02EC02DC0E3
:100010002CC02BC02AC029C028C027C026C05E0122
:1000200011241FBECFE5D2E0DEBFCDBF10E0A0E6B9
:10003000B0E0E2E2F3E002C005900D92AC36B10709
:10004000D9F720E0ACE6B0E001C01D92AD36B207B2
:10005000E1F710E0C0E2D0E003C02297FE015BD1DF
:10006000CE31D107D1F7FED05AC1CACF8FEF87BBAF
:1000700088BB85B78F7B85BF089527B381E090E06B
:10008000062E02C0880F991F0A94E2F7282330E059
:10009000062E02C0359527950A94E2F721110DC06E
:1000A00098B38095892350E09A0102C0220F331F34
:1000B0006A95E2F7B901682B68BB089558B321E04F
:1000C00030E0C901062E02C0880F991F0A94E2F79A
:1000D0008095852350E09A0102C0220F331F6A9554
:1000E000E2F7B901682B68BB0895BF92CF92DF9207
:1000F000EF92FF920F931F93CF93DF937C01C62E55
:10010000B42E122F40E0602FD9DFC0E0D0E0D12C18
:10011000C6010C2E02C0959587950A94E2F7482FE8
:1001200041706B2DC701CADF82E08A95F1F700C0EC
:1001300041E0612FC701C2DF22E02A95F1F700C03C
:1001400040E0612FC701BADF82E08A95F1F700C075
:100150002196C830D105E1F641E0602FC701AEDF3E
:1001600022E02A95F1F700C040E0602FC701A6DF2A
:10017000DF91CF911F910F91FF90EF90DF90CF9083
:10018000BF9008950F93CF93DF9380916A00909171
:100190006B006AE070E096D0EB01FC01E05AFF4F83
:1001A00001E022E040E060818CE690E09EDFC05AF2
:1001B000DF4F22E040E068818CE690E096DFDF913F
:1001C000CF910F9108951F920F920FB60F921124A5
:1001D0002F933F934F935F936F937F938F939F934F
:1001E000AF93BF93CF93DF93EF93FF9386B3B39B0C
:1001F00020C0C3E6D0E080916A0090916B00019628
:10020000843691052CF490936B0080936A0004C0AF
:10021000D0936B00C0936A00B5DF2FEF84E39CE0BE
:10022000215080409040E1F700C0000086B3B399B0
:10023000E2CFFF91EF91DF91CF91BF91AF919F916D
:100240008F917F916F915F914F913F912F910F907F
:100250000FBE0F901F9018958BB780628BBFAB9A23
:1002600078940895B89ABA9AB99ABB9840E063E036
:100270008CE690E002DFBC9AEFDFC4E6D0E082DFDC
:100280002FEF84E39CE0215080409040E1F700C0D4
:10029000000080916A0090916B001816190624F0F6
:1002A000D0936B00C0936A0080916A0090916B00BC
:1002B000019790936B0080936A00E1CF8CE690E009
:1002C000D5DE089597FB072E16F4009406D077FD2F
:1002D00008D00BD007FC05D03EF4909581959F4F38
:1002E0000895709561957F4F0895AA1BBB1B51E13E
:1002F00007C0AA1FBB1FA617B70710F0A61BB70B96
:10030000881F991F5A95A9F780959095BC01CD013A
:100310000895EE0FFF1F0590F491E02D0994F894D5
:02032000FFCF0D
:0C032200DE06EC6E367AFA0EFE3E63003A
:00000001FF
