:100000000FC028C027C026C025C024C023C022C0DE
:1000100021C020C01FC01EC01DC01CC01BC060006E
:1000200011241FBECFE5D2E0DEBFCDBF20E0A0E6A9
:10003000B0E001C01D92A136B207E1F710E0C0E2C6
:10004000D0E003C02297FE0141D0CE31D107D1F7D5
:1000500009D040C0D5CF8FEF87BB88BB85B78F7BDA
:1000600085BF0895B89ABA9AB99ABC9A80E090E090
:1000700030E020E002C0832F922FC09840E54A95DF
:10008000F1F7C198E0E5EA95F1F7C298EFE8F1E001
:100090003197F1F700C00000C09AF0E5FA95F1F74A
:1000A000C19A40E54A95F1F7C29AEFE8F1E031973D
:1000B000F1F700C00000019684369105E4F6DDCF2B
:1000C00080E690E0C8DF0895EE0FFF1F0590F491E1
:0800D000E02D0994F894FFCF24
:00000001FF
